{
  "_format": "hh-sol-artifact-1",
  "contractName": "Upload",
  "sourceName": "contracts/Upload.sol",
  "abi": [
    {
      "inputs": [
        {
          "internalType": "address",
          "name": "_user",
          "type": "address"
        },
        {
          "internalType": "string",
          "name": "url",
          "type": "string"
        }
      ],
      "name": "add",
      "outputs": [],
      "stateMutability": "nonpayable",
      "type": "function"
    },
    {
      "inputs": [
        {
          "internalType": "address",
          "name": "user",
          "type": "address"
        }
      ],
      "name": "allow",
      "outputs": [],
      "stateMutability": "nonpayable",
      "type": "function"
    },
    {
      "inputs": [
        {
          "internalType": "address",
          "name": "user",
          "type": "address"
        }
      ],
      "name": "diallow",
      "outputs": [],
      "stateMutability": "nonpayable",
      "type": "function"
    },
    {
      "inputs": [
        {
          "internalType": "address",
          "name": "_user",
          "type": "address"
        }
      ],
      "name": "display",
      "outputs": [
        {
          "internalType": "string[]",
          "name": "",
          "type": "string[]"
        }
      ],
      "stateMutability": "view",
      "type": "function"
    },
    {
      "inputs": [],
      "name": "shareAccess",
      "outputs": [
        {
          "components": [
            {
              "internalType": "address",
              "name": "user",
              "type": "address"
            },
            {
              "internalType": "bool",
              "name": "access",
              "type": "bool"
            }
          ],
          "internalType": "struct Upload.Access[]",
          "name": "",
          "type": "tuple[]"
        }
      ],
      "stateMutability": "view",
      "type": "function"
    }
  ],
  "bytecode": "0x608060405234801561001057600080fd5b50611176806100206000396000f3fe608060405234801561001057600080fd5b50600436106100575760003560e01c806336d6da551461005c578063bc8bef8114610078578063eb39113f14610096578063fef0674f146100c6578063ff9913e8146100e2575b600080fd5b61007660048036038101906100719190610c7d565b6100fe565b005b61008061017d565b60405161008d9190610de5565b60405180910390f35b6100b060048036038101906100ab9190610e07565b610286565b6040516100bd9190610f8f565b60405180910390f35b6100e060048036038101906100db9190610e07565b61049c565b005b6100fc60048036038101906100f79190610e07565b6106bf565b005b6000808473ffffffffffffffffffffffffffffffffffffffff1673ffffffffffffffffffffffffffffffffffffffff168152602001908152602001600020828290918060018154018082558091505060019003906000526020600020016000909192909192909192909192509190610177929190610b0d565b50505050565b6060600260003373ffffffffffffffffffffffffffffffffffffffff1673ffffffffffffffffffffffffffffffffffffffff168152602001908152602001600020805480602002602001604051908101604052809291908181526020016000905b8282101561027d578382906000526020600020016040518060400160405290816000820160009054906101000a900473ffffffffffffffffffffffffffffffffffffffff1673ffffffffffffffffffffffffffffffffffffffff1673ffffffffffffffffffffffffffffffffffffffff1681526020016000820160149054906101000a900460ff161515151581525050815260200190600101906101de565b50505050905090565b60603373ffffffffffffffffffffffffffffffffffffffff168273ffffffffffffffffffffffffffffffffffffffff1614806103485750600160008373ffffffffffffffffffffffffffffffffffffffff1673ffffffffffffffffffffffffffffffffffffffff16815260200190815260200160002060003373ffffffffffffffffffffffffffffffffffffffff1673ffffffffffffffffffffffffffffffffffffffff16815260200190815260200160002060009054906101000a900460ff165b610387576040517f08c379a000000000000000000000000000000000000000000000000000000000815260040161037e9061100e565b60405180910390fd5b6000808373ffffffffffffffffffffffffffffffffffffffff1673ffffffffffffffffffffffffffffffffffffffff168152602001908152602001600020805480602002602001604051908101604052809291908181526020016000905b828210156104915783829060005260206000200180546104049061105d565b80601f01602080910402602001604051908101604052809291908181526020018280546104309061105d565b801561047d5780601f106104525761010080835404028352916020019161047d565b820191906000526020600020905b81548152906001019060200180831161046057829003601f168201915b5050505050815260200190600101906103e5565b505050509050919050565b6000600160003373ffffffffffffffffffffffffffffffffffffffff1673ffffffffffffffffffffffffffffffffffffffff16815260200190815260200160002060008373ffffffffffffffffffffffffffffffffffffffff1673ffffffffffffffffffffffffffffffffffffffff16815260200190815260200160002060006101000a81548160ff02191690831515021790555060005b600260003373ffffffffffffffffffffffffffffffffffffffff1673ffffffffffffffffffffffffffffffffffffffff168152602001908152602001600020805490508110156106bb578173ffffffffffffffffffffffffffffffffffffffff16600260003373ffffffffffffffffffffffffffffffffffffffff1673ffffffffffffffffffffffffffffffffffffffff16815260200190815260200160002082815481106105e6576105e561108f565b5b9060005260206000200160000160009054906101000a900473ffffffffffffffffffffffffffffffffffffffff1673ffffffffffffffffffffffffffffffffffffffff1614156106a8576000600260003373ffffffffffffffffffffffffffffffffffffffff1673ffffffffffffffffffffffffffffffffffffffff16815260200190815260200160002082815481106106835761068261108f565b5b9060005260206000200160000160146101000a81548160ff0219169083151502179055505b80806106b3906110f7565b915050610534565b5050565b60018060003373ffffffffffffffffffffffffffffffffffffffff1673ffffffffffffffffffffffffffffffffffffffff16815260200190815260200160002060008373ffffffffffffffffffffffffffffffffffffffff1673ffffffffffffffffffffffffffffffffffffffff16815260200190815260200160002060006101000a81548160ff02191690831515021790555060011515600360003373ffffffffffffffffffffffffffffffffffffffff1673ffffffffffffffffffffffffffffffffffffffff16815260200190815260200160002060008373ffffffffffffffffffffffffffffffffffffffff1673ffffffffffffffffffffffffffffffffffffffff16815260200190815260200160002060009054906101000a900460ff16151514156109795760005b600260003373ffffffffffffffffffffffffffffffffffffffff1673ffffffffffffffffffffffffffffffffffffffff16815260200190815260200160002080549050811015610973578173ffffffffffffffffffffffffffffffffffffffff16600260003373ffffffffffffffffffffffffffffffffffffffff1673ffffffffffffffffffffffffffffffffffffffff168152602001908152602001600020828154811061089e5761089d61108f565b5b9060005260206000200160000160009054906101000a900473ffffffffffffffffffffffffffffffffffffffff1673ffffffffffffffffffffffffffffffffffffffff161415610960576001600260003373ffffffffffffffffffffffffffffffffffffffff1673ffffffffffffffffffffffffffffffffffffffff168152602001908152602001600020828154811061093b5761093a61108f565b5b9060005260206000200160000160146101000a81548160ff0219169083151502179055505b808061096b906110f7565b9150506107ec565b50610b0a565b600260003373ffffffffffffffffffffffffffffffffffffffff1673ffffffffffffffffffffffffffffffffffffffff16815260200190815260200160002060405180604001604052808373ffffffffffffffffffffffffffffffffffffffff168152602001600115158152509080600181540180825580915050600190039060005260206000200160009091909190915060008201518160000160006101000a81548173ffffffffffffffffffffffffffffffffffffffff021916908373ffffffffffffffffffffffffffffffffffffffff16021790555060208201518160000160146101000a81548160ff02191690831515021790555050506001600360003373ffffffffffffffffffffffffffffffffffffffff1673ffffffffffffffffffffffffffffffffffffffff16815260200190815260200160002060008373ffffffffffffffffffffffffffffffffffffffff1673ffffffffffffffffffffffffffffffffffffffff16815260200190815260200160002060006101000a81548160ff0219169083151502179055505b50565b828054610b199061105d565b90600052602060002090601f016020900481019282610b3b5760008555610b82565b82601f10610b5457803560ff1916838001178555610b82565b82800160010185558215610b82579182015b82811115610b81578235825591602001919060010190610b66565b5b509050610b8f9190610b93565b5090565b5b80821115610bac576000816000905550600101610b94565b5090565b600080fd5b600080fd5b600073ffffffffffffffffffffffffffffffffffffffff82169050919050565b6000610be582610bba565b9050919050565b610bf581610bda565b8114610c0057600080fd5b50565b600081359050610c1281610bec565b92915050565b600080fd5b600080fd5b600080fd5b60008083601f840112610c3d57610c3c610c18565b5b8235905067ffffffffffffffff811115610c5a57610c59610c1d565b5b602083019150836001820283011115610c7657610c75610c22565b5b9250929050565b600080600060408486031215610c9657610c95610bb0565b5b6000610ca486828701610c03565b935050602084013567ffffffffffffffff811115610cc557610cc4610bb5565b5b610cd186828701610c27565b92509250509250925092565b600081519050919050565b600082825260208201905092915050565b6000819050602082019050919050565b610d1281610bda565b82525050565b60008115159050919050565b610d2d81610d18565b82525050565b604082016000820151610d496000850182610d09565b506020820151610d5c6020850182610d24565b50505050565b6000610d6e8383610d33565b60408301905092915050565b6000602082019050919050565b6000610d9282610cdd565b610d9c8185610ce8565b9350610da783610cf9565b8060005b83811015610dd8578151610dbf8882610d62565b9750610dca83610d7a565b925050600181019050610dab565b5085935050505092915050565b60006020820190508181036000830152610dff8184610d87565b905092915050565b600060208284031215610e1d57610e1c610bb0565b5b6000610e2b84828501610c03565b91505092915050565b600081519050919050565b600082825260208201905092915050565b6000819050602082019050919050565b600081519050919050565b600082825260208201905092915050565b60005b83811015610e9a578082015181840152602081019050610e7f565b83811115610ea9576000848401525b50505050565b6000601f19601f8301169050919050565b6000610ecb82610e60565b610ed58185610e6b565b9350610ee5818560208601610e7c565b610eee81610eaf565b840191505092915050565b6000610f058383610ec0565b905092915050565b6000602082019050919050565b6000610f2582610e34565b610f2f8185610e3f565b935083602082028501610f4185610e50565b8060005b85811015610f7d5784840389528151610f5e8582610ef9565b9450610f6983610f0d565b925060208a01995050600181019050610f45565b50829750879550505050505092915050565b60006020820190508181036000830152610fa98184610f1a565b905092915050565b600082825260208201905092915050565b7f596f7520646f6e27742068617665206163636573730000000000000000000000600082015250565b6000610ff8601583610fb1565b915061100382610fc2565b602082019050919050565b6000602082019050818103600083015261102781610feb565b9050919050565b7f4e487b7100000000000000000000000000000000000000000000000000000000600052602260045260246000fd5b6000600282049050600182168061107557607f821691505b602082108114156110895761108861102e565b5b50919050565b7f4e487b7100000000000000000000000000000000000000000000000000000000600052603260045260246000fd5b7f4e487b7100000000000000000000000000000000000000000000000000000000600052601160045260246000fd5b6000819050919050565b6000611102826110ed565b91507fffffffffffffffffffffffffffffffffffffffffffffffffffffffffffffffff821415611135576111346110be565b5b60018201905091905056fea2646970667358221220a7824e64118572be1d2a14c2e7bf58596ff4c82954be9188ac9bbcf3e20285b364736f6c63430008090033",
  "linkReferences": {},
  "deployedLinkReferences": {}
}